{
  "_format": "hh-sol-artifact-1",
  "contractName": "Sawti",
  "sourceName": "contracts/Sawti.sol",
  "abi": [
    {
      "inputs": [],
      "stateMutability": "nonpayable",
      "type": "constructor"
    },
    {
      "anonymous": false,
      "inputs": [
        {
          "indexed": true,
          "internalType": "address",
          "name": "owner",
          "type": "address"
        },
        {
          "indexed": true,
          "internalType": "address",
          "name": "approved",
          "type": "address"
        },
        {
          "indexed": true,
          "internalType": "uint256",
          "name": "tokenId",
          "type": "uint256"
        }
      ],
      "name": "Approval",
      "type": "event"
    },
    {
      "anonymous": false,
      "inputs": [
        {
          "indexed": true,
          "internalType": "address",
          "name": "owner",
          "type": "address"
        },
        {
          "indexed": true,
          "internalType": "address",
          "name": "operator",
          "type": "address"
        },
        {
          "indexed": false,
          "internalType": "bool",
          "name": "approved",
          "type": "bool"
        }
      ],
      "name": "ApprovalForAll",
      "type": "event"
    },
    {
      "anonymous": false,
      "inputs": [
        {
          "indexed": false,
          "internalType": "uint256",
          "name": "id",
          "type": "uint256"
        }
      ],
      "name": "NFTMade",
      "type": "event"
    },
    {
      "anonymous": false,
      "inputs": [
        {
          "indexed": false,
          "internalType": "uint256",
          "name": "id",
          "type": "uint256"
        }
      ],
      "name": "SawtiMade",
      "type": "event"
    },
    {
      "anonymous": false,
      "inputs": [
        {
          "indexed": true,
          "internalType": "address",
          "name": "from",
          "type": "address"
        },
        {
          "indexed": true,
          "internalType": "address",
          "name": "to",
          "type": "address"
        },
        {
          "indexed": true,
          "internalType": "uint256",
          "name": "tokenId",
          "type": "uint256"
        }
      ],
      "name": "Transfer",
      "type": "event"
    },
    {
      "inputs": [
        {
          "internalType": "uint256",
          "name": "",
          "type": "uint256"
        }
      ],
      "name": "all",
      "outputs": [
        {
          "internalType": "string",
          "name": "name",
          "type": "string"
        },
        {
          "internalType": "string",
          "name": "link",
          "type": "string"
        },
        {
          "internalType": "uint256",
          "name": "timestamp",
          "type": "uint256"
        },
        {
          "internalType": "address",
          "name": "author",
          "type": "address"
        },
        {
          "internalType": "string",
          "name": "category",
          "type": "string"
        },
        {
          "internalType": "uint256",
          "name": "id",
          "type": "uint256"
        }
      ],
      "stateMutability": "view",
      "type": "function"
    },
    {
      "inputs": [
        {
          "internalType": "address",
          "name": "to",
          "type": "address"
        },
        {
          "internalType": "uint256",
          "name": "tokenId",
          "type": "uint256"
        }
      ],
      "name": "approve",
      "outputs": [],
      "stateMutability": "nonpayable",
      "type": "function"
    },
    {
      "inputs": [
        {
          "internalType": "address",
          "name": "owner",
          "type": "address"
        }
      ],
      "name": "balanceOf",
      "outputs": [
        {
          "internalType": "uint256",
          "name": "",
          "type": "uint256"
        }
      ],
      "stateMutability": "view",
      "type": "function"
    },
    {
      "inputs": [
        {
          "internalType": "uint256",
          "name": "",
          "type": "uint256"
        }
      ],
      "name": "fiction",
      "outputs": [
        {
          "internalType": "string",
          "name": "name",
          "type": "string"
        },
        {
          "internalType": "string",
          "name": "link",
          "type": "string"
        },
        {
          "internalType": "uint256",
          "name": "timestamp",
          "type": "uint256"
        },
        {
          "internalType": "address",
          "name": "author",
          "type": "address"
        },
        {
          "internalType": "string",
          "name": "category",
          "type": "string"
        },
        {
          "internalType": "uint256",
          "name": "id",
          "type": "uint256"
        }
      ],
      "stateMutability": "view",
      "type": "function"
    },
    {
      "inputs": [],
      "name": "getAllPodcasts",
      "outputs": [
        {
          "components": [
            {
              "internalType": "string",
              "name": "name",
              "type": "string"
            },
            {
              "internalType": "string",
              "name": "link",
              "type": "string"
            },
            {
              "internalType": "uint256",
              "name": "timestamp",
              "type": "uint256"
            },
            {
              "internalType": "address",
              "name": "author",
              "type": "address"
            },
            {
              "internalType": "string",
              "name": "category",
              "type": "string"
            },
            {
              "internalType": "uint256",
              "name": "id",
              "type": "uint256"
            }
          ],
          "internalType": "struct Sawti.Sawt[]",
          "name": "",
          "type": "tuple[]"
        }
      ],
      "stateMutability": "view",
      "type": "function"
    },
    {
      "inputs": [
        {
          "internalType": "uint256",
          "name": "tokenId",
          "type": "uint256"
        }
      ],
      "name": "getApproved",
      "outputs": [
        {
          "internalType": "address",
          "name": "",
          "type": "address"
        }
      ],
      "stateMutability": "view",
      "type": "function"
    },
    {
      "inputs": [],
      "name": "getFictionPodcasts",
      "outputs": [
        {
          "components": [
            {
              "internalType": "string",
              "name": "name",
              "type": "string"
            },
            {
              "internalType": "string",
              "name": "link",
              "type": "string"
            },
            {
              "internalType": "uint256",
              "name": "timestamp",
              "type": "uint256"
            },
            {
              "internalType": "address",
              "name": "author",
              "type": "address"
            },
            {
              "internalType": "string",
              "name": "category",
              "type": "string"
            },
            {
              "internalType": "uint256",
              "name": "id",
              "type": "uint256"
            }
          ],
          "internalType": "struct Sawti.Sawt[]",
          "name": "",
          "type": "tuple[]"
        }
      ],
      "stateMutability": "view",
      "type": "function"
    },
    {
      "inputs": [],
      "name": "getMiscPodcasts",
      "outputs": [
        {
          "components": [
            {
              "internalType": "string",
              "name": "name",
              "type": "string"
            },
            {
              "internalType": "string",
              "name": "link",
              "type": "string"
            },
            {
              "internalType": "uint256",
              "name": "timestamp",
              "type": "uint256"
            },
            {
              "internalType": "address",
              "name": "author",
              "type": "address"
            },
            {
              "internalType": "string",
              "name": "category",
              "type": "string"
            },
            {
              "internalType": "uint256",
              "name": "id",
              "type": "uint256"
            }
          ],
          "internalType": "struct Sawti.Sawt[]",
          "name": "",
          "type": "tuple[]"
        }
      ],
      "stateMutability": "view",
      "type": "function"
    },
    {
      "inputs": [
        {
          "internalType": "string",
          "name": "url",
          "type": "string"
        }
      ],
      "name": "getPodcastFromLink",
      "outputs": [
        {
          "components": [
            {
              "internalType": "string",
              "name": "name",
              "type": "string"
            },
            {
              "internalType": "string",
              "name": "link",
              "type": "string"
            },
            {
              "internalType": "uint256",
              "name": "timestamp",
              "type": "uint256"
            },
            {
              "internalType": "address",
              "name": "author",
              "type": "address"
            },
            {
              "internalType": "string",
              "name": "category",
              "type": "string"
            },
            {
              "internalType": "uint256",
              "name": "id",
              "type": "uint256"
            }
          ],
          "internalType": "struct Sawti.Sawt",
          "name": "",
          "type": "tuple"
        }
      ],
      "stateMutability": "view",
      "type": "function"
    },
    {
      "inputs": [
        {
          "internalType": "uint256",
          "name": "id",
          "type": "uint256"
        }
      ],
      "name": "getPodcastsFromId",
      "outputs": [
        {
          "components": [
            {
              "internalType": "string",
              "name": "name",
              "type": "string"
            },
            {
              "internalType": "string",
              "name": "link",
              "type": "string"
            },
            {
              "internalType": "uint256",
              "name": "timestamp",
              "type": "uint256"
            },
            {
              "internalType": "address",
              "name": "author",
              "type": "address"
            },
            {
              "internalType": "string",
              "name": "category",
              "type": "string"
            },
            {
              "internalType": "uint256",
              "name": "id",
              "type": "uint256"
            }
          ],
          "internalType": "struct Sawti.Sawt",
          "name": "",
          "type": "tuple"
        }
      ],
      "stateMutability": "view",
      "type": "function"
    },
    {
      "inputs": [],
      "name": "getTechPodcasts",
      "outputs": [
        {
          "components": [
            {
              "internalType": "string",
              "name": "name",
              "type": "string"
            },
            {
              "internalType": "string",
              "name": "link",
              "type": "string"
            },
            {
              "internalType": "uint256",
              "name": "timestamp",
              "type": "uint256"
            },
            {
              "internalType": "address",
              "name": "author",
              "type": "address"
            },
            {
              "internalType": "string",
              "name": "category",
              "type": "string"
            },
            {
              "internalType": "uint256",
              "name": "id",
              "type": "uint256"
            }
          ],
          "internalType": "struct Sawti.Sawt[]",
          "name": "",
          "type": "tuple[]"
        }
      ],
      "stateMutability": "view",
      "type": "function"
    },
    {
      "inputs": [
        {
          "internalType": "string",
          "name": "url",
          "type": "string"
        }
      ],
      "name": "getUserOfPodcast",
      "outputs": [
        {
          "internalType": "address",
          "name": "",
          "type": "address"
        }
      ],
      "stateMutability": "view",
      "type": "function"
    },
    {
      "inputs": [],
      "name": "getUserPodcasts",
      "outputs": [
        {
          "components": [
            {
              "internalType": "string",
              "name": "name",
              "type": "string"
            },
            {
              "internalType": "string",
              "name": "link",
              "type": "string"
            },
            {
              "internalType": "uint256",
              "name": "timestamp",
              "type": "uint256"
            },
            {
              "internalType": "address",
              "name": "author",
              "type": "address"
            },
            {
              "internalType": "string",
              "name": "category",
              "type": "string"
            },
            {
              "internalType": "uint256",
              "name": "id",
              "type": "uint256"
            }
          ],
          "internalType": "struct Sawti.Sawt[]",
          "name": "",
          "type": "tuple[]"
        }
      ],
      "stateMutability": "view",
      "type": "function"
    },
    {
      "inputs": [
        {
          "internalType": "uint256",
          "name": "",
          "type": "uint256"
        }
      ],
      "name": "history",
      "outputs": [
        {
          "internalType": "string",
          "name": "name",
          "type": "string"
        },
        {
          "internalType": "string",
          "name": "link",
          "type": "string"
        },
        {
          "internalType": "uint256",
          "name": "timestamp",
          "type": "uint256"
        },
        {
          "internalType": "address",
          "name": "author",
          "type": "address"
        },
        {
          "internalType": "string",
          "name": "category",
          "type": "string"
        },
        {
          "internalType": "uint256",
          "name": "id",
          "type": "uint256"
        }
      ],
      "stateMutability": "view",
      "type": "function"
    },
    {
      "inputs": [
        {
          "internalType": "uint256",
          "name": "",
          "type": "uint256"
        }
      ],
      "name": "idToPodcast",
      "outputs": [
        {
          "internalType": "string",
          "name": "name",
          "type": "string"
        },
        {
          "internalType": "string",
          "name": "link",
          "type": "string"
        },
        {
          "internalType": "uint256",
          "name": "timestamp",
          "type": "uint256"
        },
        {
          "internalType": "address",
          "name": "author",
          "type": "address"
        },
        {
          "internalType": "string",
          "name": "category",
          "type": "string"
        },
        {
          "internalType": "uint256",
          "name": "id",
          "type": "uint256"
        }
      ],
      "stateMutability": "view",
      "type": "function"
    },
    {
      "inputs": [
        {
          "internalType": "address",
          "name": "owner",
          "type": "address"
        },
        {
          "internalType": "address",
          "name": "operator",
          "type": "address"
        }
      ],
      "name": "isApprovedForAll",
      "outputs": [
        {
          "internalType": "bool",
          "name": "",
          "type": "bool"
        }
      ],
      "stateMutability": "view",
      "type": "function"
    },
    {
      "inputs": [
        {
          "internalType": "string",
          "name": "",
          "type": "string"
        }
      ],
      "name": "linkToPodcast",
      "outputs": [
        {
          "internalType": "string",
          "name": "name",
          "type": "string"
        },
        {
          "internalType": "string",
          "name": "link",
          "type": "string"
        },
        {
          "internalType": "uint256",
          "name": "timestamp",
          "type": "uint256"
        },
        {
          "internalType": "address",
          "name": "author",
          "type": "address"
        },
        {
          "internalType": "string",
          "name": "category",
          "type": "string"
        },
        {
          "internalType": "uint256",
          "name": "id",
          "type": "uint256"
        }
      ],
      "stateMutability": "view",
      "type": "function"
    },
    {
      "inputs": [
        {
          "internalType": "string",
          "name": "tokenURI",
          "type": "string"
        },
        {
          "internalType": "uint256",
          "name": "id",
          "type": "uint256"
        }
      ],
      "name": "makeNFT",
      "outputs": [
        {
          "internalType": "uint256",
          "name": "",
          "type": "uint256"
        }
      ],
      "stateMutability": "nonpayable",
      "type": "function"
    },
    {
      "inputs": [
        {
          "internalType": "uint256",
          "name": "",
          "type": "uint256"
        }
      ],
      "name": "misc",
      "outputs": [
        {
          "internalType": "string",
          "name": "name",
          "type": "string"
        },
        {
          "internalType": "string",
          "name": "link",
          "type": "string"
        },
        {
          "internalType": "uint256",
          "name": "timestamp",
          "type": "uint256"
        },
        {
          "internalType": "address",
          "name": "author",
          "type": "address"
        },
        {
          "internalType": "string",
          "name": "category",
          "type": "string"
        },
        {
          "internalType": "uint256",
          "name": "id",
          "type": "uint256"
        }
      ],
      "stateMutability": "view",
      "type": "function"
    },
    {
      "inputs": [],
      "name": "name",
      "outputs": [
        {
          "internalType": "string",
          "name": "",
          "type": "string"
        }
      ],
      "stateMutability": "view",
      "type": "function"
    },
    {
      "inputs": [
        {
          "internalType": "uint256",
          "name": "tokenId",
          "type": "uint256"
        }
      ],
      "name": "ownerOf",
      "outputs": [
        {
          "internalType": "address",
          "name": "",
          "type": "address"
        }
      ],
      "stateMutability": "view",
      "type": "function"
    },
    {
      "inputs": [
        {
          "internalType": "uint256",
          "name": "",
          "type": "uint256"
        }
      ],
      "name": "podcastToNFT",
      "outputs": [
        {
          "internalType": "bool",
          "name": "",
          "type": "bool"
        }
      ],
      "stateMutability": "view",
      "type": "function"
    },
    {
      "inputs": [
        {
          "internalType": "string",
          "name": "",
          "type": "string"
        }
      ],
      "name": "podcastToUser",
      "outputs": [
        {
          "internalType": "address",
          "name": "",
          "type": "address"
        }
      ],
      "stateMutability": "view",
      "type": "function"
    },
    {
      "inputs": [
        {
          "internalType": "string",
          "name": "podcastLink",
          "type": "string"
        },
        {
          "internalType": "string",
          "name": "name",
          "type": "string"
        },
        {
          "internalType": "string",
          "name": "category",
          "type": "string"
        }
      ],
      "name": "publishPodcast",
      "outputs": [],
      "stateMutability": "nonpayable",
      "type": "function"
    },
    {
      "inputs": [
        {
          "internalType": "address",
          "name": "from",
          "type": "address"
        },
        {
          "internalType": "address",
          "name": "to",
          "type": "address"
        },
        {
          "internalType": "uint256",
          "name": "tokenId",
          "type": "uint256"
        }
      ],
      "name": "safeTransferFrom",
      "outputs": [],
      "stateMutability": "nonpayable",
      "type": "function"
    },
    {
      "inputs": [
        {
          "internalType": "address",
          "name": "from",
          "type": "address"
        },
        {
          "internalType": "address",
          "name": "to",
          "type": "address"
        },
        {
          "internalType": "uint256",
          "name": "tokenId",
          "type": "uint256"
        },
        {
          "internalType": "bytes",
          "name": "data",
          "type": "bytes"
        }
      ],
      "name": "safeTransferFrom",
      "outputs": [],
      "stateMutability": "nonpayable",
      "type": "function"
    },
    {
      "inputs": [
        {
          "internalType": "address",
          "name": "operator",
          "type": "address"
        },
        {
          "internalType": "bool",
          "name": "approved",
          "type": "bool"
        }
      ],
      "name": "setApprovalForAll",
      "outputs": [],
      "stateMutability": "nonpayable",
      "type": "function"
    },
    {
      "inputs": [
        {
          "internalType": "bytes4",
          "name": "interfaceId",
          "type": "bytes4"
        }
      ],
      "name": "supportsInterface",
      "outputs": [
        {
          "internalType": "bool",
          "name": "",
          "type": "bool"
        }
      ],
      "stateMutability": "view",
      "type": "function"
    },
    {
      "inputs": [],
      "name": "symbol",
      "outputs": [
        {
          "internalType": "string",
          "name": "",
          "type": "string"
        }
      ],
      "stateMutability": "view",
      "type": "function"
    },
    {
      "inputs": [
        {
          "internalType": "uint256",
          "name": "",
          "type": "uint256"
        }
      ],
      "name": "tech",
      "outputs": [
        {
          "internalType": "string",
          "name": "name",
          "type": "string"
        },
        {
          "internalType": "string",
          "name": "link",
          "type": "string"
        },
        {
          "internalType": "uint256",
          "name": "timestamp",
          "type": "uint256"
        },
        {
          "internalType": "address",
          "name": "author",
          "type": "address"
        },
        {
          "internalType": "string",
          "name": "category",
          "type": "string"
        },
        {
          "internalType": "uint256",
          "name": "id",
          "type": "uint256"
        }
      ],
      "stateMutability": "view",
      "type": "function"
    },
    {
      "inputs": [
        {
          "internalType": "uint256",
          "name": "tokenId",
          "type": "uint256"
        }
      ],
      "name": "tokenURI",
      "outputs": [
        {
          "internalType": "string",
          "name": "",
          "type": "string"
        }
      ],
      "stateMutability": "view",
      "type": "function"
    },
    {
      "inputs": [
        {
          "internalType": "address",
          "name": "from",
          "type": "address"
        },
        {
          "internalType": "address",
          "name": "to",
          "type": "address"
        },
        {
          "internalType": "uint256",
          "name": "tokenId",
          "type": "uint256"
        }
      ],
      "name": "transferFrom",
      "outputs": [],
      "stateMutability": "nonpayable",
      "type": "function"
    },
    {
      "inputs": [
        {
          "internalType": "address",
          "name": "",
          "type": "address"
        },
        {
          "internalType": "uint256",
          "name": "",
          "type": "uint256"
        }
      ],
      "name": "userToPodcasts",
      "outputs": [
        {
          "internalType": "string",
          "name": "name",
          "type": "string"
        },
        {
          "internalType": "string",
          "name": "link",
          "type": "string"
        },
        {
          "internalType": "uint256",
          "name": "timestamp",
          "type": "uint256"
        },
        {
          "internalType": "address",
          "name": "author",
          "type": "address"
        },
        {
          "internalType": "string",
          "name": "category",
          "type": "string"
        },
        {
          "internalType": "uint256",
          "name": "id",
          "type": "uint256"
        }
      ],
      "stateMutability": "view",
      "type": "function"
    }
  ],
  "bytecode": "0x608060405260006008553480156200001657600080fd5b506040518060400160405280600581526020017f53617774690000000000000000000000000000000000000000000000000000008152506040518060400160405280600581526020017f536177746900000000000000000000000000000000000000000000000000000081525081600090805190602001906200009b929190620000bd565b508060019080519060200190620000b4929190620000bd565b505050620001d2565b828054620000cb906200019c565b90600052602060002090601f016020900481019282620000ef57600085556200013b565b82601f106200010a57805160ff19168380011785556200013b565b828001600101855582156200013b579182015b828111156200013a5782518255916020019190600101906200011d565b5b5090506200014a91906200014e565b5090565b5b80821115620001695760008160009055506001016200014f565b5090565b7f4e487b7100000000000000000000000000000000000000000000000000000000600052602260045260246000fd5b60006002820490506001821680620001b557607f821691505b60208210811415620001cc57620001cb6200016d565b5b50919050565b615f3980620001e26000396000f3fe608060405234801561001057600080fd5b50600436106101fb5760003560e01c80636ee10c351161011a578063a22cb465116100ad578063b88d4fde1161007c578063b88d4fde146106aa578063c83066ac146106c6578063c87b56dd146106e4578063e4b2ceed14610714578063e985e9c514610732576101fb565b8063a22cb46514610606578063a7a38f0b14610622578063acb62f7014610657578063af42527f14610675576101fb565b80639345306b116100e95780639345306b1461055857806395d89b41146105885780639736a515146105a65780639b73baee146105d6576101fb565b80636ee10c35146104a557806370a08231146104da5780637cc096bb1461050a578063872434f41461053a576101fb565b8063342add1d1161019257806349e822101161016157806349e82210146103ef5780634a8f418c1461040b5780636114730c146104405780636352211e14610475576101fb565b8063342add1d1461033457806336a92ae2146103695780633dc4b7821461039e57806342842e0e146103d3576101fb565b806314532b02116101ce57806314532b021461029a57806323b872dd146102ca5780632f5723c4146102e657806332886a5c14610316576101fb565b806301ffc9a71461020057806306fdde0314610230578063081812fc1461024e578063095ea7b31461027e575b600080fd5b61021a60048036038101906102159190614af0565b610762565b6040516102279190614b38565b60405180910390f35b610238610844565b6040516102459190614bec565b60405180910390f35b61026860048036038101906102639190614c44565b6108d6565b6040516102759190614cb2565b60405180910390f35b61029860048036038101906102939190614cf9565b61091c565b005b6102b460048036038101906102af9190614e6e565b610a34565b6040516102c19190614cb2565b60405180910390f35b6102e460048036038101906102df9190614eb7565b610a7d565b005b61030060048036038101906102fb9190614e6e565b610add565b60405161030d9190614cb2565b60405180910390f35b61031e610b25565b60405161032b91906150cb565b60405180910390f35b61034e60048036038101906103499190614c44565b610da4565b604051610360969594939291906150fc565b60405180910390f35b610383600480360381019061037e9190614cf9565b610fa8565b604051610395969594939291906150fc565b60405180910390f35b6103b860048036038101906103b39190614c44565b6111b9565b6040516103ca969594939291906150fc565b60405180910390f35b6103ed60048036038101906103e89190614eb7565b6113ad565b005b61040960048036038101906104049190615172565b6113cd565b005b61042560048036038101906104209190614e6e565b611eda565b604051610437969594939291906150fc565b60405180910390f35b61045a60048036038101906104559190614c44565b6120e4565b60405161046c969594939291906150fc565b60405180910390f35b61048f600480360381019061048a9190614c44565b6122e8565b60405161049c9190614cb2565b60405180910390f35b6104bf60048036038101906104ba9190614c44565b61239a565b6040516104d1969594939291906150fc565b60405180910390f35b6104f460048036038101906104ef9190615219565b61259e565b6040516105019190615246565b60405180910390f35b610524600480360381019061051f9190614c44565b612656565b60405161053191906152f8565b60405180910390f35b6105426128a3565b60405161054f91906150cb565b60405180910390f35b610572600480360381019061056d919061531a565b612b22565b60405161057f9190615246565b60405180910390f35b610590612bed565b60405161059d9190614bec565b60405180910390f35b6105c060048036038101906105bb9190614c44565b612c7f565b6040516105cd9190614b38565b60405180910390f35b6105f060048036038101906105eb9190614e6e565b612c9f565b6040516105fd91906152f8565b60405180910390f35b610620600480360381019061061b91906153a2565b612ef7565b005b61063c60048036038101906106379190614c44565b612f0d565b60405161064e969594939291906150fc565b60405180910390f35b61065f613111565b60405161066c91906150cb565b60405180910390f35b61068f600480360381019061068a9190614c44565b6133cd565b6040516106a1969594939291906150fc565b60405180910390f35b6106c460048036038101906106bf9190615483565b6135d1565b005b6106ce613633565b6040516106db91906150cb565b60405180910390f35b6106fe60048036038101906106f99190614c44565b6138b2565b60405161070b9190614bec565b60405180910390f35b61071c6139c5565b60405161072991906150cb565b60405180910390f35b61074c60048036038101906107479190615506565b613c44565b6040516107599190614b38565b60405180910390f35b60007f80ac58cd000000000000000000000000000000000000000000000000000000007bffffffffffffffffffffffffffffffffffffffffffffffffffffffff1916827bffffffffffffffffffffffffffffffffffffffffffffffffffffffff1916148061082d57507f5b5e139f000000000000000000000000000000000000000000000000000000007bffffffffffffffffffffffffffffffffffffffffffffffffffffffff1916827bffffffffffffffffffffffffffffffffffffffffffffffffffffffff1916145b8061083d575061083c82613cd8565b5b9050919050565b60606000805461085390615575565b80601f016020809104026020016040519081016040528092919081815260200182805461087f90615575565b80156108cc5780601f106108a1576101008083540402835291602001916108cc565b820191906000526020600020905b8154815290600101906020018083116108af57829003601f168201915b5050505050905090565b60006108e182613d42565b6004600083815260200190815260200160002060009054906101000a900473ffffffffffffffffffffffffffffffffffffffff169050919050565b6000610927826122e8565b90508073ffffffffffffffffffffffffffffffffffffffff168373ffffffffffffffffffffffffffffffffffffffff161415610998576040517f08c379a000000000000000000000000000000000000000000000000000000000815260040161098f90615619565b60405180910390fd5b8073ffffffffffffffffffffffffffffffffffffffff166109b7613d8d565b73ffffffffffffffffffffffffffffffffffffffff1614806109e657506109e5816109e0613d8d565b613c44565b5b610a25576040517f08c379a0000000000000000000000000000000000000000000000000000000008152600401610a1c906156ab565b60405180910390fd5b610a2f8383613d95565b505050565b600f818051602081018201805184825260208301602085012081835280955050505050506000915054906101000a900473ffffffffffffffffffffffffffffffffffffffff1681565b610a8e610a88613d8d565b82613e4e565b610acd576040517f08c379a0000000000000000000000000000000000000000000000000000000008152600401610ac49061573d565b60405180910390fd5b610ad8838383613ee3565b505050565b6000600f82604051610aef9190615799565b908152602001604051809103902060009054906101000a900473ffffffffffffffffffffffffffffffffffffffff169050919050565b60606009805480602002602001604051908101604052809291908181526020016000905b82821015610d9b57838290600052602060002090600602016040518060c0016040529081600082018054610b7c90615575565b80601f0160208091040260200160405190810160405280929190818152602001828054610ba890615575565b8015610bf55780601f10610bca57610100808354040283529160200191610bf5565b820191906000526020600020905b815481529060010190602001808311610bd857829003601f168201915b50505050508152602001600182018054610c0e90615575565b80601f0160208091040260200160405190810160405280929190818152602001828054610c3a90615575565b8015610c875780601f10610c5c57610100808354040283529160200191610c87565b820191906000526020600020905b815481529060010190602001808311610c6a57829003601f168201915b50505050508152602001600282015481526020016003820160009054906101000a900473ffffffffffffffffffffffffffffffffffffffff1673ffffffffffffffffffffffffffffffffffffffff1673ffffffffffffffffffffffffffffffffffffffff168152602001600482018054610d0090615575565b80601f0160208091040260200160405190810160405280929190818152602001828054610d2c90615575565b8015610d795780601f10610d4e57610100808354040283529160200191610d79565b820191906000526020600020905b815481529060010190602001808311610d5c57829003601f168201915b5050505050815260200160058201548152505081526020019060010190610b49565b50505050905090565b600a8181548110610db457600080fd5b9060005260206000209060060201600091509050806000018054610dd790615575565b80601f0160208091040260200160405190810160405280929190818152602001828054610e0390615575565b8015610e505780601f10610e2557610100808354040283529160200191610e50565b820191906000526020600020905b815481529060010190602001808311610e3357829003601f168201915b505050505090806001018054610e6590615575565b80601f0160208091040260200160405190810160405280929190818152602001828054610e9190615575565b8015610ede5780601f10610eb357610100808354040283529160200191610ede565b820191906000526020600020905b815481529060010190602001808311610ec157829003601f168201915b5050505050908060020154908060030160009054906101000a900473ffffffffffffffffffffffffffffffffffffffff1690806004018054610f1f90615575565b80601f0160208091040260200160405190810160405280929190818152602001828054610f4b90615575565b8015610f985780601f10610f6d57610100808354040283529160200191610f98565b820191906000526020600020905b815481529060010190602001808311610f7b57829003601f168201915b5050505050908060050154905086565b600e6020528160005260406000208181548110610fc457600080fd5b906000526020600020906006020160009150915050806000018054610fe890615575565b80601f016020809104026020016040519081016040528092919081815260200182805461101490615575565b80156110615780601f1061103657610100808354040283529160200191611061565b820191906000526020600020905b81548152906001019060200180831161104457829003601f168201915b50505050509080600101805461107690615575565b80601f01602080910402602001604051908101604052809291908181526020018280546110a290615575565b80156110ef5780601f106110c4576101008083540402835291602001916110ef565b820191906000526020600020905b8154815290600101906020018083116110d257829003601f168201915b5050505050908060020154908060030160009054906101000a900473ffffffffffffffffffffffffffffffffffffffff169080600401805461113090615575565b80601f016020809104026020016040519081016040528092919081815260200182805461115c90615575565b80156111a95780601f1061117e576101008083540402835291602001916111a9565b820191906000526020600020905b81548152906001019060200180831161118c57829003601f168201915b5050505050908060050154905086565b60116020528060005260406000206000915090508060000180546111dc90615575565b80601f016020809104026020016040519081016040528092919081815260200182805461120890615575565b80156112555780601f1061122a57610100808354040283529160200191611255565b820191906000526020600020905b81548152906001019060200180831161123857829003601f168201915b50505050509080600101805461126a90615575565b80601f016020809104026020016040519081016040528092919081815260200182805461129690615575565b80156112e35780601f106112b8576101008083540402835291602001916112e3565b820191906000526020600020905b8154815290600101906020018083116112c657829003601f168201915b5050505050908060020154908060030160009054906101000a900473ffffffffffffffffffffffffffffffffffffffff169080600401805461132490615575565b80601f016020809104026020016040519081016040528092919081815260200182805461135090615575565b801561139d5780601f106113725761010080835404028352916020019161139d565b820191906000526020600020905b81548152906001019060200180831161138057829003601f168201915b5050505050908060050154905086565b6113c8838383604051806020016040528060008152506135d1565b505050565b60016008546113dc91906157df565b600881905550600e60003373ffffffffffffffffffffffffffffffffffffffff1673ffffffffffffffffffffffffffffffffffffffff1681526020019081526020016000206040518060c001604052808481526020018581526020014281526020013373ffffffffffffffffffffffffffffffffffffffff168152602001838152602001600854815250908060018154018082558091505060019003906000526020600020906006020160009091909190915060008201518160000190805190602001906114ab929190614995565b5060208201518160010190805190602001906114c8929190614995565b506040820151816002015560608201518160030160006101000a81548173ffffffffffffffffffffffffffffffffffffffff021916908373ffffffffffffffffffffffffffffffffffffffff1602179055506080820151816004019080519060200190611536929190614995565b5060a08201518160050155505033600f846040516115549190615799565b908152602001604051809103902060006101000a81548173ffffffffffffffffffffffffffffffffffffffff021916908373ffffffffffffffffffffffffffffffffffffffff1602179055506040518060c001604052808381526020018481526020014281526020013373ffffffffffffffffffffffffffffffffffffffff1681526020018281526020016008548152506010846040516115f59190615799565b9081526020016040518091039020600082015181600001908051906020019061161f929190614995565b50602082015181600101908051906020019061163c929190614995565b506040820151816002015560608201518160030160006101000a81548173ffffffffffffffffffffffffffffffffffffffff021916908373ffffffffffffffffffffffffffffffffffffffff16021790555060808201518160040190805190602001906116aa929190614995565b5060a08201518160050155905050600d6040518060c001604052808481526020018581526020014281526020013373ffffffffffffffffffffffffffffffffffffffff16815260200183815260200160085481525090806001815401808255809150506001900390600052602060002090600602016000909190919091506000820151816000019080519060200190611744929190614995565b506020820151816001019080519060200190611761929190614995565b506040820151816002015560608201518160030160006101000a81548173ffffffffffffffffffffffffffffffffffffffff021916908373ffffffffffffffffffffffffffffffffffffffff16021790555060808201518160040190805190602001906117cf929190614995565b5060a0820151816005015550506040518060400160405280600481526020017f746563680000000000000000000000000000000000000000000000000000000081525080519060200120818051906020012014156119505760096040518060c001604052808481526020018581526020014281526020013373ffffffffffffffffffffffffffffffffffffffff168152602001838152602001600854815250908060018154018082558091505060019003906000526020600020906006020160009091909190915060008201518160000190805190602001906118b3929190614995565b5060208201518160010190805190602001906118d0929190614995565b506040820151816002015560608201518160030160006101000a81548173ffffffffffffffffffffffffffffffffffffffff021916908373ffffffffffffffffffffffffffffffffffffffff160217905550608082015181600401908051906020019061193e929190614995565b5060a082015181600501555050611d5f565b6040518060400160405280600781526020017f66696374696f6e000000000000000000000000000000000000000000000000008152508051906020012081805190602001201415611ac457600a6040518060c001604052808481526020018581526020014281526020013373ffffffffffffffffffffffffffffffffffffffff16815260200183815260200160085481525090806001815401808255809150506001900390600052602060002090600602016000909190919091506000820151816000019080519060200190611a27929190614995565b506020820151816001019080519060200190611a44929190614995565b506040820151816002015560608201518160030160006101000a81548173ffffffffffffffffffffffffffffffffffffffff021916908373ffffffffffffffffffffffffffffffffffffffff1602179055506080820151816004019080519060200190611ab2929190614995565b5060a082015181600501555050611d5e565b6040518060400160405280600781526020017f686973746f7279000000000000000000000000000000000000000000000000008152508051906020012081805190602001201415611c3857600b6040518060c001604052808481526020018581526020014281526020013373ffffffffffffffffffffffffffffffffffffffff16815260200183815260200160085481525090806001815401808255809150506001900390600052602060002090600602016000909190919091506000820151816000019080519060200190611b9b929190614995565b506020820151816001019080519060200190611bb8929190614995565b506040820151816002015560608201518160030160006101000a81548173ffffffffffffffffffffffffffffffffffffffff021916908373ffffffffffffffffffffffffffffffffffffffff1602179055506080820151816004019080519060200190611c26929190614995565b5060a082015181600501555050611d5d565b600c6040518060c001604052808481526020018581526020014281526020013373ffffffffffffffffffffffffffffffffffffffff16815260200183815260200160085481525090806001815401808255809150506001900390600052602060002090600602016000909190919091506000820151816000019080519060200190611cc4929190614995565b506020820151816001019080519060200190611ce1929190614995565b506040820151816002015560608201518160030160006101000a81548173ffffffffffffffffffffffffffffffffffffffff021916908373ffffffffffffffffffffffffffffffffffffffff1602179055506080820151816004019080519060200190611d4f929190614995565b5060a0820151816005015550505b5b5b6040518060c001604052808381526020018481526020014281526020013373ffffffffffffffffffffffffffffffffffffffff1681526020018281526020016008548152506011600060085481526020019081526020016000206000820151816000019080519060200190611dd5929190614995565b506020820151816001019080519060200190611df2929190614995565b506040820151816002015560608201518160030160006101000a81548173ffffffffffffffffffffffffffffffffffffffff021916908373ffffffffffffffffffffffffffffffffffffffff1602179055506080820151816004019080519060200190611e60929190614995565b5060a08201518160050155905050600060126000600854815260200190815260200160002060006101000a81548160ff0219169083151502179055507f76de5da333cd6816ea6f4c50d5d919e452e4960806cbf0d764a2630071380121600854604051611ecd9190615246565b60405180910390a1505050565b601081805160208101820180518482526020830160208501208183528095505050505050600091509050806000018054611f1390615575565b80601f0160208091040260200160405190810160405280929190818152602001828054611f3f90615575565b8015611f8c5780601f10611f6157610100808354040283529160200191611f8c565b820191906000526020600020905b815481529060010190602001808311611f6f57829003601f168201915b505050505090806001018054611fa190615575565b80601f0160208091040260200160405190810160405280929190818152602001828054611fcd90615575565b801561201a5780601f10611fef5761010080835404028352916020019161201a565b820191906000526020600020905b815481529060010190602001808311611ffd57829003601f168201915b5050505050908060020154908060030160009054906101000a900473ffffffffffffffffffffffffffffffffffffffff169080600401805461205b90615575565b80601f016020809104026020016040519081016040528092919081815260200182805461208790615575565b80156120d45780601f106120a9576101008083540402835291602001916120d4565b820191906000526020600020905b8154815290600101906020018083116120b757829003601f168201915b5050505050908060050154905086565b600d81815481106120f457600080fd5b906000526020600020906006020160009150905080600001805461211790615575565b80601f016020809104026020016040519081016040528092919081815260200182805461214390615575565b80156121905780601f1061216557610100808354040283529160200191612190565b820191906000526020600020905b81548152906001019060200180831161217357829003601f168201915b5050505050908060010180546121a590615575565b80601f01602080910402602001604051908101604052809291908181526020018280546121d190615575565b801561221e5780601f106121f35761010080835404028352916020019161221e565b820191906000526020600020905b81548152906001019060200180831161220157829003601f168201915b5050505050908060020154908060030160009054906101000a900473ffffffffffffffffffffffffffffffffffffffff169080600401805461225f90615575565b80601f016020809104026020016040519081016040528092919081815260200182805461228b90615575565b80156122d85780601f106122ad576101008083540402835291602001916122d8565b820191906000526020600020905b8154815290600101906020018083116122bb57829003601f168201915b5050505050908060050154905086565b6000806002600084815260200190815260200160002060009054906101000a900473ffffffffffffffffffffffffffffffffffffffff169050600073ffffffffffffffffffffffffffffffffffffffff168173ffffffffffffffffffffffffffffffffffffffff161415612391576040517f08c379a000000000000000000000000000000000000000000000000000000000815260040161238890615881565b60405180910390fd5b80915050919050565b600981815481106123aa57600080fd5b90600052602060002090600602016000915090508060000180546123cd90615575565b80601f01602080910402602001604051908101604052809291908181526020018280546123f990615575565b80156124465780601f1061241b57610100808354040283529160200191612446565b820191906000526020600020905b81548152906001019060200180831161242957829003601f168201915b50505050509080600101805461245b90615575565b80601f016020809104026020016040519081016040528092919081815260200182805461248790615575565b80156124d45780601f106124a9576101008083540402835291602001916124d4565b820191906000526020600020905b8154815290600101906020018083116124b757829003601f168201915b5050505050908060020154908060030160009054906101000a900473ffffffffffffffffffffffffffffffffffffffff169080600401805461251590615575565b80601f016020809104026020016040519081016040528092919081815260200182805461254190615575565b801561258e5780601f106125635761010080835404028352916020019161258e565b820191906000526020600020905b81548152906001019060200180831161257157829003601f168201915b5050505050908060050154905086565b60008073ffffffffffffffffffffffffffffffffffffffff168273ffffffffffffffffffffffffffffffffffffffff16141561260f576040517f08c379a000000000000000000000000000000000000000000000000000000000815260040161260690615913565b60405180910390fd5b600360008373ffffffffffffffffffffffffffffffffffffffff1673ffffffffffffffffffffffffffffffffffffffff168152602001908152602001600020549050919050565b61265e614a1b565b601160008381526020019081526020016000206040518060c001604052908160008201805461268c90615575565b80601f01602080910402602001604051908101604052809291908181526020018280546126b890615575565b80156127055780601f106126da57610100808354040283529160200191612705565b820191906000526020600020905b8154815290600101906020018083116126e857829003601f168201915b5050505050815260200160018201805461271e90615575565b80601f016020809104026020016040519081016040528092919081815260200182805461274a90615575565b80156127975780601f1061276c57610100808354040283529160200191612797565b820191906000526020600020905b81548152906001019060200180831161277a57829003601f168201915b50505050508152602001600282015481526020016003820160009054906101000a900473ffffffffffffffffffffffffffffffffffffffff1673ffffffffffffffffffffffffffffffffffffffff1673ffffffffffffffffffffffffffffffffffffffff16815260200160048201805461281090615575565b80601f016020809104026020016040519081016040528092919081815260200182805461283c90615575565b80156128895780601f1061285e57610100808354040283529160200191612889565b820191906000526020600020905b81548152906001019060200180831161286c57829003601f168201915b505050505081526020016005820154815250509050919050565b6060600a805480602002602001604051908101604052809291908181526020016000905b82821015612b1957838290600052602060002090600602016040518060c00160405290816000820180546128fa90615575565b80601f016020809104026020016040519081016040528092919081815260200182805461292690615575565b80156129735780601f1061294857610100808354040283529160200191612973565b820191906000526020600020905b81548152906001019060200180831161295657829003601f168201915b5050505050815260200160018201805461298c90615575565b80601f01602080910402602001604051908101604052809291908181526020018280546129b890615575565b8015612a055780601f106129da57610100808354040283529160200191612a05565b820191906000526020600020905b8154815290600101906020018083116129e857829003601f168201915b50505050508152602001600282015481526020016003820160009054906101000a900473ffffffffffffffffffffffffffffffffffffffff1673ffffffffffffffffffffffffffffffffffffffff1673ffffffffffffffffffffffffffffffffffffffff168152602001600482018054612a7e90615575565b80601f0160208091040260200160405190810160405280929190818152602001828054612aaa90615575565b8015612af75780601f10612acc57610100808354040283529160200191612af7565b820191906000526020600020905b815481529060010190602001808311612ada57829003601f168201915b50505050508152602001600582015481525050815260200190600101906128c7565b50505050905090565b60008015156012600084815260200190815260200160002060009054906101000a900460ff16151514612b5457600080fd5b612b5e600761414a565b6000612b6a6007614160565b9050612b76338261416e565b612b808185614348565b60016012600085815260200190815260200160002060006101000a81548160ff0219169083151502179055507fdf877f75a3c0269c369775aabf46bcfb3a16f37aa7c5de64a2e60161c2afd49d81604051612bdb9190615246565b60405180910390a18091505092915050565b606060018054612bfc90615575565b80601f0160208091040260200160405190810160405280929190818152602001828054612c2890615575565b8015612c755780601f10612c4a57610100808354040283529160200191612c75565b820191906000526020600020905b815481529060010190602001808311612c5857829003601f168201915b5050505050905090565b60126020528060005260406000206000915054906101000a900460ff1681565b612ca7614a1b565b601082604051612cb79190615799565b90815260200160405180910390206040518060c0016040529081600082018054612ce090615575565b80601f0160208091040260200160405190810160405280929190818152602001828054612d0c90615575565b8015612d595780601f10612d2e57610100808354040283529160200191612d59565b820191906000526020600020905b815481529060010190602001808311612d3c57829003601f168201915b50505050508152602001600182018054612d7290615575565b80601f0160208091040260200160405190810160405280929190818152602001828054612d9e90615575565b8015612deb5780601f10612dc057610100808354040283529160200191612deb565b820191906000526020600020905b815481529060010190602001808311612dce57829003601f168201915b50505050508152602001600282015481526020016003820160009054906101000a900473ffffffffffffffffffffffffffffffffffffffff1673ffffffffffffffffffffffffffffffffffffffff1673ffffffffffffffffffffffffffffffffffffffff168152602001600482018054612e6490615575565b80601f0160208091040260200160405190810160405280929190818152602001828054612e9090615575565b8015612edd5780601f10612eb257610100808354040283529160200191612edd565b820191906000526020600020905b815481529060010190602001808311612ec057829003601f168201915b505050505081526020016005820154815250509050919050565b612f09612f02613d8d565b83836143bc565b5050565b600b8181548110612f1d57600080fd5b9060005260206000209060060201600091509050806000018054612f4090615575565b80601f0160208091040260200160405190810160405280929190818152602001828054612f6c90615575565b8015612fb95780601f10612f8e57610100808354040283529160200191612fb9565b820191906000526020600020905b815481529060010190602001808311612f9c57829003601f168201915b505050505090806001018054612fce90615575565b80601f0160208091040260200160405190810160405280929190818152602001828054612ffa90615575565b80156130475780601f1061301c57610100808354040283529160200191613047565b820191906000526020600020905b81548152906001019060200180831161302a57829003601f168201915b5050505050908060020154908060030160009054906101000a900473ffffffffffffffffffffffffffffffffffffffff169080600401805461308890615575565b80601f01602080910402602001604051908101604052809291908181526020018280546130b490615575565b80156131015780601f106130d657610100808354040283529160200191613101565b820191906000526020600020905b8154815290600101906020018083116130e457829003601f168201915b5050505050908060050154905086565b6060600e60003373ffffffffffffffffffffffffffffffffffffffff1673ffffffffffffffffffffffffffffffffffffffff168152602001908152602001600020805480602002602001604051908101604052809291908181526020016000905b828210156133c457838290600052602060002090600602016040518060c00160405290816000820180546131a590615575565b80601f01602080910402602001604051908101604052809291908181526020018280546131d190615575565b801561321e5780601f106131f35761010080835404028352916020019161321e565b820191906000526020600020905b81548152906001019060200180831161320157829003601f168201915b5050505050815260200160018201805461323790615575565b80601f016020809104026020016040519081016040528092919081815260200182805461326390615575565b80156132b05780601f10613285576101008083540402835291602001916132b0565b820191906000526020600020905b81548152906001019060200180831161329357829003601f168201915b50505050508152602001600282015481526020016003820160009054906101000a900473ffffffffffffffffffffffffffffffffffffffff1673ffffffffffffffffffffffffffffffffffffffff1673ffffffffffffffffffffffffffffffffffffffff16815260200160048201805461332990615575565b80601f016020809104026020016040519081016040528092919081815260200182805461335590615575565b80156133a25780601f10613377576101008083540402835291602001916133a2565b820191906000526020600020905b81548152906001019060200180831161338557829003601f168201915b5050505050815260200160058201548152505081526020019060010190613172565b50505050905090565b600c81815481106133dd57600080fd5b906000526020600020906006020160009150905080600001805461340090615575565b80601f016020809104026020016040519081016040528092919081815260200182805461342c90615575565b80156134795780601f1061344e57610100808354040283529160200191613479565b820191906000526020600020905b81548152906001019060200180831161345c57829003601f168201915b50505050509080600101805461348e90615575565b80601f01602080910402602001604051908101604052809291908181526020018280546134ba90615575565b80156135075780601f106134dc57610100808354040283529160200191613507565b820191906000526020600020905b8154815290600101906020018083116134ea57829003601f168201915b5050505050908060020154908060030160009054906101000a900473ffffffffffffffffffffffffffffffffffffffff169080600401805461354890615575565b80601f016020809104026020016040519081016040528092919081815260200182805461357490615575565b80156135c15780601f10613596576101008083540402835291602001916135c1565b820191906000526020600020905b8154815290600101906020018083116135a457829003601f168201915b5050505050908060050154905086565b6135e26135dc613d8d565b83613e4e565b613621576040517f08c379a00000000000000000000000000000000000000000000000000000000081526004016136189061573d565b60405180910390fd5b61362d84848484614529565b50505050565b6060600d805480602002602001604051908101604052809291908181526020016000905b828210156138a957838290600052602060002090600602016040518060c001604052908160008201805461368a90615575565b80601f01602080910402602001604051908101604052809291908181526020018280546136b690615575565b80156137035780601f106136d857610100808354040283529160200191613703565b820191906000526020600020905b8154815290600101906020018083116136e657829003601f168201915b5050505050815260200160018201805461371c90615575565b80601f016020809104026020016040519081016040528092919081815260200182805461374890615575565b80156137955780601f1061376a57610100808354040283529160200191613795565b820191906000526020600020905b81548152906001019060200180831161377857829003601f168201915b50505050508152602001600282015481526020016003820160009054906101000a900473ffffffffffffffffffffffffffffffffffffffff1673ffffffffffffffffffffffffffffffffffffffff1673ffffffffffffffffffffffffffffffffffffffff16815260200160048201805461380e90615575565b80601f016020809104026020016040519081016040528092919081815260200182805461383a90615575565b80156138875780601f1061385c57610100808354040283529160200191613887565b820191906000526020600020905b81548152906001019060200180831161386a57829003601f168201915b5050505050815260200160058201548152505081526020019060010190613657565b50505050905090565b60606138bd82613d42565b60006006600084815260200190815260200160002080546138dd90615575565b80601f016020809104026020016040519081016040528092919081815260200182805461390990615575565b80156139565780601f1061392b57610100808354040283529160200191613956565b820191906000526020600020905b81548152906001019060200180831161393957829003601f168201915b505050505090506000613967614585565b905060008151141561397d5781925050506139c0565b6000825111156139b257808260405160200161399a929190615933565b604051602081830303815290604052925050506139c0565b6139bb8461459c565b925050505b919050565b6060600c805480602002602001604051908101604052809291908181526020016000905b82821015613c3b57838290600052602060002090600602016040518060c0016040529081600082018054613a1c90615575565b80601f0160208091040260200160405190810160405280929190818152602001828054613a4890615575565b8015613a955780601f10613a6a57610100808354040283529160200191613a95565b820191906000526020600020905b815481529060010190602001808311613a7857829003601f168201915b50505050508152602001600182018054613aae90615575565b80601f0160208091040260200160405190810160405280929190818152602001828054613ada90615575565b8015613b275780601f10613afc57610100808354040283529160200191613b27565b820191906000526020600020905b815481529060010190602001808311613b0a57829003601f168201915b50505050508152602001600282015481526020016003820160009054906101000a900473ffffffffffffffffffffffffffffffffffffffff1673ffffffffffffffffffffffffffffffffffffffff1673ffffffffffffffffffffffffffffffffffffffff168152602001600482018054613ba090615575565b80601f0160208091040260200160405190810160405280929190818152602001828054613bcc90615575565b8015613c195780601f10613bee57610100808354040283529160200191613c19565b820191906000526020600020905b815481529060010190602001808311613bfc57829003601f168201915b50505050508152602001600582015481525050815260200190600101906139e9565b50505050905090565b6000600560008473ffffffffffffffffffffffffffffffffffffffff1673ffffffffffffffffffffffffffffffffffffffff16815260200190815260200160002060008373ffffffffffffffffffffffffffffffffffffffff1673ffffffffffffffffffffffffffffffffffffffff16815260200190815260200160002060009054906101000a900460ff16905092915050565b60007f01ffc9a7000000000000000000000000000000000000000000000000000000007bffffffffffffffffffffffffffffffffffffffffffffffffffffffff1916827bffffffffffffffffffffffffffffffffffffffffffffffffffffffff1916149050919050565b613d4b81614604565b613d8a576040517f08c379a0000000000000000000000000000000000000000000000000000000008152600401613d8190615881565b60405180910390fd5b50565b600033905090565b816004600083815260200190815260200160002060006101000a81548173ffffffffffffffffffffffffffffffffffffffff021916908373ffffffffffffffffffffffffffffffffffffffff160217905550808273ffffffffffffffffffffffffffffffffffffffff16613e08836122e8565b73ffffffffffffffffffffffffffffffffffffffff167f8c5be1e5ebec7d5bd14f71427d1e84f3dd0314c0f7b2291e5b200ac8c7c3b92560405160405180910390a45050565b600080613e5a836122e8565b90508073ffffffffffffffffffffffffffffffffffffffff168473ffffffffffffffffffffffffffffffffffffffff161480613e9c5750613e9b8185613c44565b5b80613eda57508373ffffffffffffffffffffffffffffffffffffffff16613ec2846108d6565b73ffffffffffffffffffffffffffffffffffffffff16145b91505092915050565b8273ffffffffffffffffffffffffffffffffffffffff16613f03826122e8565b73ffffffffffffffffffffffffffffffffffffffff1614613f59576040517f08c379a0000000000000000000000000000000000000000000000000000000008152600401613f50906159c9565b60405180910390fd5b600073ffffffffffffffffffffffffffffffffffffffff168273ffffffffffffffffffffffffffffffffffffffff161415613fc9576040517f08c379a0000000000000000000000000000000000000000000000000000000008152600401613fc090615a5b565b60405180910390fd5b613fd4838383614670565b613fdf600082613d95565b6001600360008573ffffffffffffffffffffffffffffffffffffffff1673ffffffffffffffffffffffffffffffffffffffff168152602001908152602001600020600082825461402f9190615a7b565b925050819055506001600360008473ffffffffffffffffffffffffffffffffffffffff1673ffffffffffffffffffffffffffffffffffffffff168152602001908152602001600020600082825461408691906157df565b92505081905550816002600083815260200190815260200160002060006101000a81548173ffffffffffffffffffffffffffffffffffffffff021916908373ffffffffffffffffffffffffffffffffffffffff160217905550808273ffffffffffffffffffffffffffffffffffffffff168473ffffffffffffffffffffffffffffffffffffffff167fddf252ad1be2c89b69c2b068fc378daa952ba7f163c4a11628f55a4df523b3ef60405160405180910390a4614145838383614675565b505050565b6001816000016000828254019250508190555050565b600081600001549050919050565b600073ffffffffffffffffffffffffffffffffffffffff168273ffffffffffffffffffffffffffffffffffffffff1614156141de576040517f08c379a00000000000000000000000000000000000000000000000000000000081526004016141d590615afb565b60405180910390fd5b6141e781614604565b15614227576040517f08c379a000000000000000000000000000000000000000000000000000000000815260040161421e90615b67565b60405180910390fd5b61423360008383614670565b6001600360008473ffffffffffffffffffffffffffffffffffffffff1673ffffffffffffffffffffffffffffffffffffffff168152602001908152602001600020600082825461428391906157df565b92505081905550816002600083815260200190815260200160002060006101000a81548173ffffffffffffffffffffffffffffffffffffffff021916908373ffffffffffffffffffffffffffffffffffffffff160217905550808273ffffffffffffffffffffffffffffffffffffffff16600073ffffffffffffffffffffffffffffffffffffffff167fddf252ad1be2c89b69c2b068fc378daa952ba7f163c4a11628f55a4df523b3ef60405160405180910390a461434460008383614675565b5050565b61435182614604565b614390576040517f08c379a000000000000000000000000000000000000000000000000000000000815260040161438790615bf9565b60405180910390fd5b806006600084815260200190815260200160002090805190602001906143b7929190614995565b505050565b8173ffffffffffffffffffffffffffffffffffffffff168373ffffffffffffffffffffffffffffffffffffffff16141561442b576040517f08c379a000000000000000000000000000000000000000000000000000000000815260040161442290615c65565b60405180910390fd5b80600560008573ffffffffffffffffffffffffffffffffffffffff1673ffffffffffffffffffffffffffffffffffffffff16815260200190815260200160002060008473ffffffffffffffffffffffffffffffffffffffff1673ffffffffffffffffffffffffffffffffffffffff16815260200190815260200160002060006101000a81548160ff0219169083151502179055508173ffffffffffffffffffffffffffffffffffffffff168373ffffffffffffffffffffffffffffffffffffffff167f17307eab39ab6107e8899845ad3d59bd9653f200f220920489ca2b5937696c318360405161451c9190614b38565b60405180910390a3505050565b614534848484613ee3565b6145408484848461467a565b61457f576040517f08c379a000000000000000000000000000000000000000000000000000000000815260040161457690615cf7565b60405180910390fd5b50505050565b606060405180602001604052806000815250905090565b60606145a782613d42565b60006145b1614585565b905060008151116145d157604051806020016040528060008152506145fc565b806145db84614811565b6040516020016145ec929190615933565b6040516020818303038152906040525b915050919050565b60008073ffffffffffffffffffffffffffffffffffffffff166002600084815260200190815260200160002060009054906101000a900473ffffffffffffffffffffffffffffffffffffffff1673ffffffffffffffffffffffffffffffffffffffff1614159050919050565b505050565b505050565b600061469b8473ffffffffffffffffffffffffffffffffffffffff16614972565b15614804578373ffffffffffffffffffffffffffffffffffffffff1663150b7a026146c4613d8d565b8786866040518563ffffffff1660e01b81526004016146e69493929190615d6c565b602060405180830381600087803b15801561470057600080fd5b505af192505050801561473157506040513d601f19601f8201168201806040525081019061472e9190615dcd565b60015b6147b4573d8060008114614761576040519150601f19603f3d011682016040523d82523d6000602084013e614766565b606091505b506000815114156147ac576040517f08c379a00000000000000000000000000000000000000000000000000000000081526004016147a390615cf7565b60405180910390fd5b805181602001fd5b63150b7a0260e01b7bffffffffffffffffffffffffffffffffffffffffffffffffffffffff1916817bffffffffffffffffffffffffffffffffffffffffffffffffffffffff191614915050614809565b600190505b949350505050565b60606000821415614859576040518060400160405280600181526020017f3000000000000000000000000000000000000000000000000000000000000000815250905061496d565b600082905060005b6000821461488b57808061487490615dfa565b915050600a826148849190615e72565b9150614861565b60008167ffffffffffffffff8111156148a7576148a6614d43565b5b6040519080825280601f01601f1916602001820160405280156148d95781602001600182028036833780820191505090505b5090505b60008514614966576001826148f29190615a7b565b9150600a856149019190615ea3565b603061490d91906157df565b60f81b81838151811061492357614922615ed4565b5b60200101907effffffffffffffffffffffffffffffffffffffffffffffffffffffffffffff1916908160001a905350600a8561495f9190615e72565b94506148dd565b8093505050505b919050565b6000808273ffffffffffffffffffffffffffffffffffffffff163b119050919050565b8280546149a190615575565b90600052602060002090601f0160209004810192826149c35760008555614a0a565b82601f106149dc57805160ff1916838001178555614a0a565b82800160010185558215614a0a579182015b82811115614a095782518255916020019190600101906149ee565b5b509050614a179190614a67565b5090565b6040518060c00160405280606081526020016060815260200160008152602001600073ffffffffffffffffffffffffffffffffffffffff16815260200160608152602001600081525090565b5b80821115614a80576000816000905550600101614a68565b5090565b6000604051905090565b600080fd5b600080fd5b60007fffffffff0000000000000000000000000000000000000000000000000000000082169050919050565b614acd81614a98565b8114614ad857600080fd5b50565b600081359050614aea81614ac4565b92915050565b600060208284031215614b0657614b05614a8e565b5b6000614b1484828501614adb565b91505092915050565b60008115159050919050565b614b3281614b1d565b82525050565b6000602082019050614b4d6000830184614b29565b92915050565b600081519050919050565b600082825260208201905092915050565b60005b83811015614b8d578082015181840152602081019050614b72565b83811115614b9c576000848401525b50505050565b6000601f19601f8301169050919050565b6000614bbe82614b53565b614bc88185614b5e565b9350614bd8818560208601614b6f565b614be181614ba2565b840191505092915050565b60006020820190508181036000830152614c068184614bb3565b905092915050565b6000819050919050565b614c2181614c0e565b8114614c2c57600080fd5b50565b600081359050614c3e81614c18565b92915050565b600060208284031215614c5a57614c59614a8e565b5b6000614c6884828501614c2f565b91505092915050565b600073ffffffffffffffffffffffffffffffffffffffff82169050919050565b6000614c9c82614c71565b9050919050565b614cac81614c91565b82525050565b6000602082019050614cc76000830184614ca3565b92915050565b614cd681614c91565b8114614ce157600080fd5b50565b600081359050614cf381614ccd565b92915050565b60008060408385031215614d1057614d0f614a8e565b5b6000614d1e85828601614ce4565b9250506020614d2f85828601614c2f565b9150509250929050565b600080fd5b600080fd5b7f4e487b7100000000000000000000000000000000000000000000000000000000600052604160045260246000fd5b614d7b82614ba2565b810181811067ffffffffffffffff82111715614d9a57614d99614d43565b5b80604052505050565b6000614dad614a84565b9050614db98282614d72565b919050565b600067ffffffffffffffff821115614dd957614dd8614d43565b5b614de282614ba2565b9050602081019050919050565b82818337600083830152505050565b6000614e11614e0c84614dbe565b614da3565b905082815260208101848484011115614e2d57614e2c614d3e565b5b614e38848285614def565b509392505050565b600082601f830112614e5557614e54614d39565b5b8135614e65848260208601614dfe565b91505092915050565b600060208284031215614e8457614e83614a8e565b5b600082013567ffffffffffffffff811115614ea257614ea1614a93565b5b614eae84828501614e40565b91505092915050565b600080600060608486031215614ed057614ecf614a8e565b5b6000614ede86828701614ce4565b9350506020614eef86828701614ce4565b9250506040614f0086828701614c2f565b9150509250925092565b600081519050919050565b600082825260208201905092915050565b6000819050602082019050919050565b600082825260208201905092915050565b6000614f5282614b53565b614f5c8185614f36565b9350614f6c818560208601614b6f565b614f7581614ba2565b840191505092915050565b614f8981614c0e565b82525050565b614f9881614c91565b82525050565b600060c0830160008301518482036000860152614fbb8282614f47565b91505060208301518482036020860152614fd58282614f47565b9150506040830151614fea6040860182614f80565b506060830151614ffd6060860182614f8f565b50608083015184820360808601526150158282614f47565b91505060a083015161502a60a0860182614f80565b508091505092915050565b60006150418383614f9e565b905092915050565b6000602082019050919050565b600061506182614f0a565b61506b8185614f15565b93508360208202850161507d85614f26565b8060005b858110156150b9578484038952815161509a8582615035565b94506150a583615049565b925060208a01995050600181019050615081565b50829750879550505050505092915050565b600060208201905081810360008301526150e58184615056565b905092915050565b6150f681614c0e565b82525050565b600060c08201905081810360008301526151168189614bb3565b9050818103602083015261512a8188614bb3565b905061513960408301876150ed565b6151466060830186614ca3565b81810360808301526151588185614bb3565b905061516760a08301846150ed565b979650505050505050565b60008060006060848603121561518b5761518a614a8e565b5b600084013567ffffffffffffffff8111156151a9576151a8614a93565b5b6151b586828701614e40565b935050602084013567ffffffffffffffff8111156151d6576151d5614a93565b5b6151e286828701614e40565b925050604084013567ffffffffffffffff81111561520357615202614a93565b5b61520f86828701614e40565b9150509250925092565b60006020828403121561522f5761522e614a8e565b5b600061523d84828501614ce4565b91505092915050565b600060208201905061525b60008301846150ed565b92915050565b600060c083016000830151848203600086015261527e8282614f47565b915050602083015184820360208601526152988282614f47565b91505060408301516152ad6040860182614f80565b5060608301516152c06060860182614f8f565b50608083015184820360808601526152d88282614f47565b91505060a08301516152ed60a0860182614f80565b508091505092915050565b600060208201905081810360008301526153128184615261565b905092915050565b6000806040838503121561533157615330614a8e565b5b600083013567ffffffffffffffff81111561534f5761534e614a93565b5b61535b85828601614e40565b925050602061536c85828601614c2f565b9150509250929050565b61537f81614b1d565b811461538a57600080fd5b50565b60008135905061539c81615376565b92915050565b600080604083850312156153b9576153b8614a8e565b5b60006153c785828601614ce4565b92505060206153d88582860161538d565b9150509250929050565b600067ffffffffffffffff8211156153fd576153fc614d43565b5b61540682614ba2565b9050602081019050919050565b6000615426615421846153e2565b614da3565b90508281526020810184848401111561544257615441614d3e565b5b61544d848285614def565b509392505050565b600082601f83011261546a57615469614d39565b5b813561547a848260208601615413565b91505092915050565b6000806000806080858703121561549d5761549c614a8e565b5b60006154ab87828801614ce4565b94505060206154bc87828801614ce4565b93505060406154cd87828801614c2f565b925050606085013567ffffffffffffffff8111156154ee576154ed614a93565b5b6154fa87828801615455565b91505092959194509250565b6000806040838503121561551d5761551c614a8e565b5b600061552b85828601614ce4565b925050602061553c85828601614ce4565b9150509250929050565b7f4e487b7100000000000000000000000000000000000000000000000000000000600052602260045260246000fd5b6000600282049050600182168061558d57607f821691505b602082108114156155a1576155a0615546565b5b50919050565b7f4552433732313a20617070726f76616c20746f2063757272656e74206f776e6560008201527f7200000000000000000000000000000000000000000000000000000000000000602082015250565b6000615603602183614b5e565b915061560e826155a7565b604082019050919050565b60006020820190508181036000830152615632816155f6565b9050919050565b7f4552433732313a20617070726f76652063616c6c6572206973206e6f7420746f60008201527f6b656e206f776e6572206e6f7220617070726f76656420666f7220616c6c0000602082015250565b6000615695603e83614b5e565b91506156a082615639565b604082019050919050565b600060208201905081810360008301526156c481615688565b9050919050565b7f4552433732313a2063616c6c6572206973206e6f7420746f6b656e206f776e6560008201527f72206e6f7220617070726f766564000000000000000000000000000000000000602082015250565b6000615727602e83614b5e565b9150615732826156cb565b604082019050919050565b600060208201905081810360008301526157568161571a565b9050919050565b600081905092915050565b600061577382614b53565b61577d818561575d565b935061578d818560208601614b6f565b80840191505092915050565b60006157a58284615768565b915081905092915050565b7f4e487b7100000000000000000000000000000000000000000000000000000000600052601160045260246000fd5b60006157ea82614c0e565b91506157f583614c0e565b9250827fffffffffffffffffffffffffffffffffffffffffffffffffffffffffffffffff0382111561582a576158296157b0565b5b828201905092915050565b7f4552433732313a20696e76616c696420746f6b656e2049440000000000000000600082015250565b600061586b601883614b5e565b915061587682615835565b602082019050919050565b6000602082019050818103600083015261589a8161585e565b9050919050565b7f4552433732313a2061646472657373207a65726f206973206e6f74206120766160008201527f6c6964206f776e65720000000000000000000000000000000000000000000000602082015250565b60006158fd602983614b5e565b9150615908826158a1565b604082019050919050565b6000602082019050818103600083015261592c816158f0565b9050919050565b600061593f8285615768565b915061594b8284615768565b91508190509392505050565b7f4552433732313a207472616e736665722066726f6d20696e636f72726563742060008201527f6f776e6572000000000000000000000000000000000000000000000000000000602082015250565b60006159b3602583614b5e565b91506159be82615957565b604082019050919050565b600060208201905081810360008301526159e2816159a6565b9050919050565b7f4552433732313a207472616e7366657220746f20746865207a65726f2061646460008201527f7265737300000000000000000000000000000000000000000000000000000000602082015250565b6000615a45602483614b5e565b9150615a50826159e9565b604082019050919050565b60006020820190508181036000830152615a7481615a38565b9050919050565b6000615a8682614c0e565b9150615a9183614c0e565b925082821015615aa457615aa36157b0565b5b828203905092915050565b7f4552433732313a206d696e7420746f20746865207a65726f2061646472657373600082015250565b6000615ae5602083614b5e565b9150615af082615aaf565b602082019050919050565b60006020820190508181036000830152615b1481615ad8565b9050919050565b7f4552433732313a20746f6b656e20616c7265616479206d696e74656400000000600082015250565b6000615b51601c83614b5e565b9150615b5c82615b1b565b602082019050919050565b60006020820190508181036000830152615b8081615b44565b9050919050565b7f45524337323155524953746f726167653a2055524920736574206f66206e6f6e60008201527f6578697374656e7420746f6b656e000000000000000000000000000000000000602082015250565b6000615be3602e83614b5e565b9150615bee82615b87565b604082019050919050565b60006020820190508181036000830152615c1281615bd6565b9050919050565b7f4552433732313a20617070726f766520746f2063616c6c657200000000000000600082015250565b6000615c4f601983614b5e565b9150615c5a82615c19565b602082019050919050565b60006020820190508181036000830152615c7e81615c42565b9050919050565b7f4552433732313a207472616e7366657220746f206e6f6e20455243373231526560008201527f63656976657220696d706c656d656e7465720000000000000000000000000000602082015250565b6000615ce1603283614b5e565b9150615cec82615c85565b604082019050919050565b60006020820190508181036000830152615d1081615cd4565b9050919050565b600081519050919050565b600082825260208201905092915050565b6000615d3e82615d17565b615d488185615d22565b9350615d58818560208601614b6f565b615d6181614ba2565b840191505092915050565b6000608082019050615d816000830187614ca3565b615d8e6020830186614ca3565b615d9b60408301856150ed565b8181036060830152615dad8184615d33565b905095945050505050565b600081519050615dc781614ac4565b92915050565b600060208284031215615de357615de2614a8e565b5b6000615df184828501615db8565b91505092915050565b6000615e0582614c0e565b91507fffffffffffffffffffffffffffffffffffffffffffffffffffffffffffffffff821415615e3857615e376157b0565b5b600182019050919050565b7f4e487b7100000000000000000000000000000000000000000000000000000000600052601260045260246000fd5b6000615e7d82614c0e565b9150615e8883614c0e565b925082615e9857615e97615e43565b5b828204905092915050565b6000615eae82614c0e565b9150615eb983614c0e565b925082615ec957615ec8615e43565b5b828206905092915050565b7f4e487b7100000000000000000000000000000000000000000000000000000000600052603260045260246000fdfea26469706673582212205c7e0f056400dd91879979c35f719def316974ed0544189b47d65659db42335864736f6c63430008090033",
  "linkReferences": {},
  "deployedLinkReferences": {}
}